:100000000C9434000C943E000C943E000C943E0082
:100010000C943E000C943E000C943E000C943E0068
:100020000C943E000C943E000C943E000C943E0058
:100030000C943E000C943E000C943E000C943E0048
:100040000C943E000C943E000C943E000C943E0038
:100050000C943E000C943E000C943E000C943E0028
:100060000C943E000C943E0011241FBECFEFD8E04C
:10007000DEBFCDBF0E944F000C9468000C940000BE
:10008000259A08952D9A08952D9808950E9440006C
:1000900008950E94420008950E94440008950E941D
:1000A00046000E9449002FE986E891E021508040F7
:1000B0009040E1F700C000000E944C002FE986E864
:1000C00091E0215080409040E1F700C00000E9CF6E
:0400D000F894FFCFD2
:00000001FF
